:100000000428FF3FFF3FFF3FFF30031383168500A7
:100010007F30860087018B01031783129E019F01A9
:100020000313870119308316990018155E24D32411
:100030007008003C0318C82883247008A1007008C9
:10004000053A031DC82801300505F4007408013A7B
:10005000031D32283130AF00B0012F30B7003224F9
:10006000071439283030AF00B0012F30B7003224E8
:100070000710003085190130F4007408013A031D9F
:1000800049283130AF00B0012F30B7003224871437
:1000900050283030AF00B0012F30B7003224871025
:1000A000003005190130F4007408013A031D60287E
:1000B0003130AF00B0012F30B70032240715672868
:1000C0003030AF00B0012F30B7003224071130308C
:1000D000AF00B0012F30B70032243030AF00B00194
:1000E0002F30B70032240130B700AE237008B500BE
:1000F0007108B6003508A2003608A3005030F000A1
:1001000073247008B1007108B2007208B30073085C
:10011000B4003508F0003608F10014243108F4006A
:100120003208F5003308F6003408F7000922700899
:10013000B1007108B2007208B3007308B400FF3058
:10014000F0000330F10048247008F4007108F50055
:100150007208F6007308F7003108F0003208F10069
:100160003308F2003408F300CA207008A4007108B4
:10017000A5007208A6007308A700C6227008B70081
:100180007108B8002830B90066212830B700322441
:100190001728C928031383127708031959297308EC
:1001A00003195C29720876068039FA00F217F617EF
:1001B000A0017208F8007108FC007008FD007408C6
:1001C000FD027508031C750FFC027608031C760FF0
:1001D000F802F801FC01FD01031CF5280310F20CE4
:1001E000F10CF00CF80C0130A0007708F302031CAE
:1001F000FF287E302007F30703185F2904297E308B
:100200002007F307031C62291830FA07FD0DFC0DC7
:10021000F80DF00DF10DF20DA00D7408F002750847
:10022000031C750FF1027608031C760FF202760D9F
:10023000A004201C1D297D1428297408F0077508C6
:100240000318750FF10776080318760AF2077D1078
:10025000FA031F307A05031D06297B1B7D1C4F29DD
:100260000310F00DF10DF20DA00D7408F0027508E9
:10027000031C750FF1027608031C760FF202760D4F
:1002800020040139FD070318FC0A0319F80A031DAD
:100290004F29F80CFC0CFD0CF30A03195F29FA1F17
:1002A000F8137808F2007C08F1007D08F0000030B7
:1002B00064290130F62464290230E02464290430E2
:1002C000B72464290830C5240000080003138312F2
:1002D0003808803A031D6E2900303706031D862931
:1002E000390884002D308000840A33308000840A6D
:1002F00032308000840A37308000840A3630800033
:10030000840A38308000840A8001082ABB018030CA
:100310003806F00080307002031D9029003037024B
:1003200003189C29FF30BB003708003CB700380891
:10033000031C013FB801B8020130BA008030F00060
:10034000803038067002031DA7293708093C0318BE
:10035000AA29BA0A8030F000803038067002031DE6
:10036000B3293708633C0318B629BA0A8030033A28
:10037000F000803038067002031DC0293708E73CC2
:100380000318C329BA0A8030273AF00080303806B3
:100390007002031DCD2937080F3C0318D029BA0A73
:1003A0003908840020308000840A8000840A80009C
:1003B000840A8000840A8000840A8000840A800104
:1003C00084033A08003C0318032A0A30F400F501BC
:1003D0003708F0003808F10023237808F000790886
:1003E000F10030307007800084030A30F400F5011A
:1003F0003708F0003808F10023237008B7007108AF
:10040000B800BA03E1293B080319082A2D308000FF
:10041000080003138312FB017308031D77080319F7
:10042000602A72087606FA007708F3077E30031C0C
:100430001D2AF3020318632A202AF302031C662AEA
:100440007208F8007108FC007008FD00F817F61734
:100450000310F201F101F0011830A0007D1C3A2ACE
:100460007408F00775080318750FF107760803186C
:10047000760FF207F20CF10CF00CF80CFC0CFD0CF2
:100480000310A00B2E2AF21B4A2AF80DF00DF10DD5
:10049000F20DF3037B1B701C5C2AF81F5C2AF00A28
:1004A0000319F10A0319F20A031D5C2AF20CF10C7C
:1004B000F00CF30A0319632AFA1FF2130030682ABA
:1004C0000130E024682A0230B724682A0430C524A9
:1004D00000000800031383127C18A22AFC18732A58
:1004E0007C19C12A6C2AA0017208031D932A710885
:1004F000F2007008F1007808F000F801A015720809
:10050000031D932A7108F2007008F100F001A01198
:1005100020167208031D932A7108F200F101A0153C
:1005200072080319B52A2008F302031D031CB92A17
:100530000310F21BA22AF80DF00DF10DF20DF30BD2
:10054000992AB92A7B1B701CBD2AF81FBD2AF00A04
:100550000319F10A0319F20A031DBD2AF20CF10C6A
:10056000F00CF30A0319C12ABD2A0130FC00E02473
:10057000C42A0230FC00C524C42A0430FC00F02444
:10058000C42A0830FC00B7240000080003138312BB
:10059000FB0173080319032B7208FA00F2178E305F
:1005A000F302F31F062BF309F30A08307302031C4E
:1005B000E92AF300F10D7208F100F201083073022C
:1005C000031CE92AF300F10DF1017308031D031068
:1005D000F12A73080319F12A0310F20CF10CF30B42
:1005E000EC2A7B1B711CFB2A031CFB2AF10A031952
:1005F000F20AF21B122BFA1F152BF209F109F10A6C
:100600000319F20A152BF201F101152B7B14FB1FC4
:10061000182BF201FA1F182BFF30F200F100FA0D2F
:10062000F20C182B0130FC001A2B0030FC001A2BA6
:10063000FF30FC00FC0803191E2BA8247108F000F1
:100640007208F100080003138312FD01F901F8019B
:10065000710870040319003471087506FA00FA1B5A
:10066000FD09FB01F51F392BF409F509F40A0319FB
:10067000F50AF11F402BF009F109F00A0319F10AFC
:1006800071087504FA00FA1B552BE7237B18682BB9
:10069000FD1F0034F009F109F00A0319F10AF80905
:1006A000F909F80A0319F90A0034F51F642BF11B44
:1006B000602B7108F9007008F800F101F001482B77
:1006C000F101F001F00A0034F109F009FB0A452BB1
:1006D000F80A0319F90A74087802031D482B7508F3
:1006E0007902031D482BF901F801F00A0319F10AF8
:1006F000F11F482B0000FF34080003138312A001F0
:100700007208031D942B7108F2007008F100F001CB
:10071000A0157208031D942B7108F200F101A011BD
:10072000201672080319A22B2008F302031D031CD4
:10073000A62B0310F21BAA2BF00DF10DF20DF30BFB
:100740009A2BA62B0130FC00E024AD2B0230FC00DC
:10075000C524AD2B0430FC00F02408004030031306
:1007600083129F05F03083169F0483129F1737086A
:10077000F000F00D7010F00D701070089F041F1441
:10078000E9249F141F08F2000030F2180130F20033
:100790007208013A031DCE2B0000C22B1E08F20086
:1007A000F3017208F300F2017208B8007308B9008F
:1007B00083161E0872048312B8007308B900003053
:1007C000B9041F103808F0003908F10008000313BD
:1007D0008312710DF80DF90D7408F8027508031CE9
:1007E000750FF902F00DF10D0F30FC00710DF80DD1
:1007F000F90D7408701C022CF8027508031C750FA3
:10080000F902072CF80775080318750FF907F00DA2
:10081000F10DFC0BF62B7018132C7408F8077508F3
:100820000318750FF9070800031383127008F80006
:100830007108F000F101F201F301FB01FC019630B7
:10084000F300FA01F01F2A2CF809F009F80A03193D
:10085000F00AFA177008F1007808F000F801F201C8
:100860007D23080003138312B801370884000008B1
:10087000B9003908003A0319472C3908BC009624FE
:10088000B80A3808370784000008B900392C080076
:10089000031383127008F8007108F000F101F201EF
:1008A000F301FB01FC019630F300FA017008F1003E
:1008B0007808F000F801F2017D2308000313831685
:1008C0009816903083129800831686168617831226
:1008D0000C08F1000030F11A0130F1007108013A02
:1008E0000319672C0800031383127008F800FB013A
:1008F000FC019E30F300FA01F201F101F001023037
:10090000FC006A220800031383121A08B7001808B3
:10091000F1000030F1180130F1007108013A031DB7
:10092000932C181218163708F000080003138316CA
:100930001808F1000030F1180130F1007108003A98
:10094000031DA42C0000962C83123C08990008007B
:10095000031383127B14FB1FB52CF201FA1FFF3027
:10096000F200F100F000FA0DF20CFF300800031362
:100970008312FB14FB1FC32CFF30F300F200F100C5
:10098000F000FA0DF20CFF300800031383127B1500
:10099000FB1FD12C0130F300F201F101F001FA0D3F
:1009A000F20CFF300800031383120C08F100003032
:1009B000F11A0130F1007108B7003708F0000800A3
:1009C00003138312F201F101F001F801F301003089
:1009D0000800073003138312FA00FA0BED2C08000D
:1009E00003138312FA1FF21300300800031383125B
:1009F000FB15FF300800FF3FFF3FFF3FFF3FFF3F7A
:02400E00C430BC
:00000001FF
